{
  "_format": "hh-sol-artifact-1",
  "contractName": "Contact",
  "sourceName": "contracts/Contact.sol",
  "abi": [
    {
      "anonymous": false,
      "inputs": [
        {
          "indexed": true,
          "internalType": "address",
          "name": "userAddress",
          "type": "address"
        },
        {
          "indexed": false,
          "internalType": "string",
          "name": "name",
          "type": "string"
        },
        {
          "indexed": false,
          "internalType": "string",
          "name": "phoneNo",
          "type": "string"
        },
        {
          "indexed": false,
          "internalType": "string",
          "name": "email",
          "type": "string"
        }
      ],
      "name": "ContactAdded",
      "type": "event"
    },
    {
      "anonymous": false,
      "inputs": [
        {
          "indexed": true,
          "internalType": "address",
          "name": "userAddress",
          "type": "address"
        },
        {
          "indexed": false,
          "internalType": "string",
          "name": "email",
          "type": "string"
        }
      ],
      "name": "EmailUpdated",
      "type": "event"
    },
    {
      "anonymous": false,
      "inputs": [
        {
          "indexed": true,
          "internalType": "address",
          "name": "userAddress",
          "type": "address"
        },
        {
          "indexed": false,
          "internalType": "string",
          "name": "name",
          "type": "string"
        }
      ],
      "name": "NameUpdated",
      "type": "event"
    },
    {
      "anonymous": false,
      "inputs": [
        {
          "indexed": true,
          "internalType": "address",
          "name": "userAddress",
          "type": "address"
        },
        {
          "indexed": false,
          "internalType": "string",
          "name": "phoneNo",
          "type": "string"
        }
      ],
      "name": "PhoneUpdated",
      "type": "event"
    },
    {
      "inputs": [
        {
          "internalType": "string",
          "name": "name",
          "type": "string"
        },
        {
          "internalType": "string",
          "name": "phoneNo",
          "type": "string"
        },
        {
          "internalType": "string",
          "name": "email",
          "type": "string"
        }
      ],
      "name": "addContact",
      "outputs": [],
      "stateMutability": "nonpayable",
      "type": "function"
    },
    {
      "inputs": [],
      "name": "getAllContact",
      "outputs": [
        {
          "components": [
            {
              "internalType": "string",
              "name": "name",
              "type": "string"
            },
            {
              "internalType": "string",
              "name": "phoneNo",
              "type": "string"
            },
            {
              "internalType": "string",
              "name": "email",
              "type": "string"
            }
          ],
          "internalType": "struct Contact.Details[]",
          "name": "",
          "type": "tuple[]"
        }
      ],
      "stateMutability": "view",
      "type": "function"
    },
    {
      "inputs": [],
      "name": "getContact",
      "outputs": [
        {
          "components": [
            {
              "internalType": "string",
              "name": "name",
              "type": "string"
            },
            {
              "internalType": "string",
              "name": "phoneNo",
              "type": "string"
            },
            {
              "internalType": "string",
              "name": "email",
              "type": "string"
            }
          ],
          "internalType": "struct Contact.Details",
          "name": "",
          "type": "tuple"
        }
      ],
      "stateMutability": "view",
      "type": "function"
    },
    {
      "inputs": [
        {
          "internalType": "address",
          "name": "",
          "type": "address"
        }
      ],
      "name": "personDetails",
      "outputs": [
        {
          "internalType": "string",
          "name": "name",
          "type": "string"
        },
        {
          "internalType": "string",
          "name": "phoneNo",
          "type": "string"
        },
        {
          "internalType": "string",
          "name": "email",
          "type": "string"
        }
      ],
      "stateMutability": "view",
      "type": "function"
    },
    {
      "inputs": [
        {
          "internalType": "string",
          "name": "email",
          "type": "string"
        }
      ],
      "name": "updateEmail",
      "outputs": [],
      "stateMutability": "nonpayable",
      "type": "function"
    },
    {
      "inputs": [
        {
          "internalType": "string",
          "name": "name",
          "type": "string"
        }
      ],
      "name": "updateName",
      "outputs": [],
      "stateMutability": "nonpayable",
      "type": "function"
    },
    {
      "inputs": [
        {
          "internalType": "string",
          "name": "phoneNo",
          "type": "string"
        }
      ],
      "name": "updatePhone",
      "outputs": [],
      "stateMutability": "nonpayable",
      "type": "function"
    }
  ],
  "bytecode": "0x608060405234801561001057600080fd5b5061111f806100206000396000f3fe608060405234801561001057600080fd5b506004361061007d5760003560e01c806384da92a71161005b57806384da92a7146100d75780638ee260f1146100ec578063d341a402146100ff578063f06099af1461011257600080fd5b80631db10fba1461008257806343a17e96146100a05780635408b446146100c2575b600080fd5b61008a610125565b6040516100979190610ccf565b60405180910390f35b6100b36100ae366004610ce9565b610362565b60405161009793929190610d12565b6100ca61051c565b6040516100979190610d55565b6100ea6100e5366004610e5a565b6107d3565b005b6100ea6100fa366004610e5a565b6108b5565b6100ea61010d366004610e97565b610993565b6100ea610120366004610e5a565b610b5e565b61014960405180606001604052806060815260200160608152602001606081525090565b336000908152602081905260408120600101805461016690610f1f565b90501161018e5760405162461bcd60e51b815260040161018590610f53565b60405180910390fd5b33600090815260208190526040908190208151606081019092528054829082906101b790610f1f565b80601f01602080910402602001604051908101604052809291908181526020018280546101e390610f1f565b80156102305780601f1061020557610100808354040283529160200191610230565b820191906000526020600020905b81548152906001019060200180831161021357829003601f168201915b5050505050815260200160018201805461024990610f1f565b80601f016020809104026020016040519081016040528092919081815260200182805461027590610f1f565b80156102c25780601f10610297576101008083540402835291602001916102c2565b820191906000526020600020905b8154815290600101906020018083116102a557829003601f168201915b505050505081526020016002820180546102db90610f1f565b80601f016020809104026020016040519081016040528092919081815260200182805461030790610f1f565b80156103545780601f1061032957610100808354040283529160200191610354565b820191906000526020600020905b81548152906001019060200180831161033757829003601f168201915b505050505081525050905090565b60006020819052908152604090208054819061037d90610f1f565b80601f01602080910402602001604051908101604052809291908181526020018280546103a990610f1f565b80156103f65780601f106103cb576101008083540402835291602001916103f6565b820191906000526020600020905b8154815290600101906020018083116103d957829003601f168201915b50505050509080600101805461040b90610f1f565b80601f016020809104026020016040519081016040528092919081815260200182805461043790610f1f565b80156104845780601f1061045957610100808354040283529160200191610484565b820191906000526020600020905b81548152906001019060200180831161046757829003601f168201915b50505050509080600201805461049990610f1f565b80601f01602080910402602001604051908101604052809291908181526020018280546104c590610f1f565b80156105125780601f106104e757610100808354040283529160200191610512565b820191906000526020600020905b8154815290600101906020018083116104f557829003601f168201915b5050505050905083565b60015460609060009067ffffffffffffffff81111561053d5761053d610db7565b60405190808252806020026020018201604052801561059257816020015b61057f60405180606001604052806060815260200160608152602001606081525090565b81526020019060019003908161055b5790505b50905060005b6001548110156107cd57600080600183815481106105b8576105b8610f8a565b60009182526020808320909101546001600160a01b0316835282019290925260409081019091208151606081019092528054829082906105f790610f1f565b80601f016020809104026020016040519081016040528092919081815260200182805461062390610f1f565b80156106705780601f1061064557610100808354040283529160200191610670565b820191906000526020600020905b81548152906001019060200180831161065357829003601f168201915b5050505050815260200160018201805461068990610f1f565b80601f01602080910402602001604051908101604052809291908181526020018280546106b590610f1f565b80156107025780601f106106d757610100808354040283529160200191610702565b820191906000526020600020905b8154815290600101906020018083116106e557829003601f168201915b5050505050815260200160028201805461071b90610f1f565b80601f016020809104026020016040519081016040528092919081815260200182805461074790610f1f565b80156107945780601f1061076957610100808354040283529160200191610794565b820191906000526020600020905b81548152906001019060200180831161077757829003601f168201915b5050505050815250508282815181106107af576107af610f8a565b602002602001018190525080806107c590610fa0565b915050610598565b50919050565b33600090815260208190526040812060010180546107f090610f1f565b90501161080f5760405162461bcd60e51b815260040161018590610f53565b60008151116108575760405162461bcd60e51b81526020600482015260146024820152734e616d652063616e6e6f7420626520656d70747960601b6044820152606401610185565b3360009081526020819052604090206108708282611016565b50336001600160a01b03167f74321da206c1b9fa34367f7ece59ca49371dcd13820b9a5c3767ae1ecceed51a826040516108aa91906110d6565b60405180910390a250565b33600090815260208190526040812060010180546108d290610f1f565b9050116108f15760405162461bcd60e51b815260040161018590610f53565b600081511161093d5760405162461bcd60e51b81526020600482015260186024820152772737ba1030903b30b634b210383437b73290373ab6b132b960411b6044820152606401610185565b3360009081526020819052604090206001016109598282611016565b50336001600160a01b03167fec2b317a5fd0e5b81ce9d67c50572e6f8659168b49c874626669e04df4c320c4826040516108aa91906110d6565b60008351116109db5760405162461bcd60e51b81526020600482015260146024820152734e616d652063616e6e6f7420626520656d70747960601b6044820152606401610185565b6000825111610a275760405162461bcd60e51b81526020600482015260186024820152772737ba1030903b30b634b210383437b73290373ab6b132b960411b6044820152606401610185565b6000815111610a6f5760405162461bcd60e51b8152602060048201526014602482015273139bdd0818481d985b1a5908195b585a5b081a5960621b6044820152606401610185565b604080516060810182528481526020808201859052818301849052336000908152908190529190912081518291908190610aa99082611016565b5060208201516001820190610abe9082611016565b5060408201516002820190610ad39082611016565b50506001805480820182556000919091527fb10e2d527612073b26eecdfd717e6a320cf44b4afac2b0732d9fcbe2b7fa0cf60180546001600160a01b031916339081179091556040519091507fa643311cf05aa6acc8e787cd339cd3c78b5d7e336e1bb77e7a67b382883c4d0e90610b5090879087908790610d12565b60405180910390a250505050565b3360009081526020819052604081206001018054610b7b90610f1f565b905011610b9a5760405162461bcd60e51b815260040161018590610f53565b6000815111610be25760405162461bcd60e51b8152602060048201526014602482015273139bdd0818481d985b1a5908195b585a5b081a5960621b6044820152606401610185565b336000908152602081905260409020600201610bfe8282611016565b50336001600160a01b03167f3558d8f19bf38b11525ccc0eb6ea20671a4fcd483a934d733346aea2c6be0709826040516108aa91906110d6565b6000815180845260005b81811015610c5e57602081850181015186830182015201610c42565b506000602082860101526020601f19601f83011685010191505092915050565b6000815160608452610c936060850182610c38565b905060208301518482036020860152610cac8282610c38565b91505060408301518482036040860152610cc68282610c38565b95945050505050565b602081526000610ce26020830184610c7e565b9392505050565b600060208284031215610cfb57600080fd5b81356001600160a01b0381168114610ce257600080fd5b606081526000610d256060830186610c38565b8281036020840152610d378186610c38565b90508281036040840152610d4b8185610c38565b9695505050505050565b6000602080830181845280855180835260408601915060408160051b870101925083870160005b82811015610daa57603f19888603018452610d98858351610c7e565b94509285019290850190600101610d7c565b5092979650505050505050565b634e487b7160e01b600052604160045260246000fd5b600082601f830112610dde57600080fd5b813567ffffffffffffffff80821115610df957610df9610db7565b604051601f8301601f19908116603f01168101908282118183101715610e2157610e21610db7565b81604052838152866020858801011115610e3a57600080fd5b836020870160208301376000602085830101528094505050505092915050565b600060208284031215610e6c57600080fd5b813567ffffffffffffffff811115610e8357600080fd5b610e8f84828501610dcd565b949350505050565b600080600060608486031215610eac57600080fd5b833567ffffffffffffffff80821115610ec457600080fd5b610ed087838801610dcd565b94506020860135915080821115610ee657600080fd5b610ef287838801610dcd565b93506040860135915080821115610f0857600080fd5b50610f1586828701610dcd565b9150509250925092565b600181811c90821680610f3357607f821691505b6020821081036107cd57634e487b7160e01b600052602260045260246000fd5b6020808252601b908201527f54686973206164647265737320646f6573206e6f742065786973740000000000604082015260600190565b634e487b7160e01b600052603260045260246000fd5b600060018201610fc057634e487b7160e01b600052601160045260246000fd5b5060010190565b601f82111561101157600081815260208120601f850160051c81016020861015610fee5750805b601f850160051c820191505b8181101561100d57828155600101610ffa565b5050505b505050565b815167ffffffffffffffff81111561103057611030610db7565b6110448161103e8454610f1f565b84610fc7565b602080601f83116001811461107957600084156110615750858301515b600019600386901b1c1916600185901b17855561100d565b600085815260208120601f198616915b828110156110a857888601518255948401946001909101908401611089565b50858210156110c65787850151600019600388901b60f8161c191681555b5050505050600190811b01905550565b602081526000610ce26020830184610c3856fea2646970667358221220a6c129f0877da41d756e7197a03a02ca87775b1acd5886c0f8dc211a7e08c41f64736f6c63430008130033",
  "linkReferences": {},
  "deployedLinkReferences": {}
}